{
  "address": "0x5d5F01AaEc428356B54Ee091502dBBEaA935F21A",
  "abi": [
    {
      "inputs": [
        {
          "internalType": "uint256[]",
          "name": "amounts",
          "type": "uint256[]"
        },
        {
          "internalType": "uint256",
          "name": "minToMint",
          "type": "uint256"
        },
        {
          "internalType": "uint256",
          "name": "deadline",
          "type": "uint256"
        }
      ],
      "name": "addLiquidity",
      "outputs": [
        {
          "internalType": "uint256",
          "name": "",
          "type": "uint256"
        }
      ],
      "stateMutability": "nonpayable",
      "type": "function"
    },
    {
      "inputs": [],
      "name": "baseSwap",
      "outputs": [
        {
          "internalType": "contract ISwap",
          "name": "",
          "type": "address"
        }
      ],
      "stateMutability": "view",
      "type": "function"
    },
    {
      "inputs": [
        {
          "internalType": "uint256",
          "name": "",
          "type": "uint256"
        }
      ],
      "name": "baseTokens",
      "outputs": [
        {
          "internalType": "contract IERC20",
          "name": "",
          "type": "address"
        }
      ],
      "stateMutability": "view",
      "type": "function"
    },
    {
      "inputs": [
        {
          "internalType": "address",
          "name": "account",
          "type": "address"
        },
        {
          "internalType": "uint256",
          "name": "amount",
          "type": "uint256"
        }
      ],
      "name": "calculateRemoveLiquidity",
      "outputs": [
        {
          "internalType": "uint256[]",
          "name": "",
          "type": "uint256[]"
        }
      ],
      "stateMutability": "view",
      "type": "function"
    },
    {
      "inputs": [
        {
          "internalType": "address",
          "name": "account",
          "type": "address"
        },
        {
          "internalType": "uint256",
          "name": "tokenAmount",
          "type": "uint256"
        },
        {
          "internalType": "uint8",
          "name": "tokenIndex",
          "type": "uint8"
        }
      ],
      "name": "calculateRemoveLiquidityOneToken",
      "outputs": [
        {
          "internalType": "uint256",
          "name": "",
          "type": "uint256"
        }
      ],
      "stateMutability": "view",
      "type": "function"
    },
    {
      "inputs": [
        {
          "internalType": "uint8",
          "name": "tokenIndexFrom",
          "type": "uint8"
        },
        {
          "internalType": "uint8",
          "name": "tokenIndexTo",
          "type": "uint8"
        },
        {
          "internalType": "uint256",
          "name": "dx",
          "type": "uint256"
        }
      ],
      "name": "calculateSwap",
      "outputs": [
        {
          "internalType": "uint256",
          "name": "",
          "type": "uint256"
        }
      ],
      "stateMutability": "view",
      "type": "function"
    },
    {
      "inputs": [
        {
          "internalType": "address",
          "name": "account",
          "type": "address"
        },
        {
          "internalType": "uint256[]",
          "name": "amounts",
          "type": "uint256[]"
        },
        {
          "internalType": "bool",
          "name": "deposit",
          "type": "bool"
        }
      ],
      "name": "calculateTokenAmount",
      "outputs": [
        {
          "internalType": "uint256",
          "name": "",
          "type": "uint256"
        }
      ],
      "stateMutability": "view",
      "type": "function"
    },
    {
      "inputs": [
        {
          "internalType": "uint256",
          "name": "index",
          "type": "uint256"
        }
      ],
      "name": "getToken",
      "outputs": [
        {
          "internalType": "contract IERC20",
          "name": "",
          "type": "address"
        }
      ],
      "stateMutability": "view",
      "type": "function"
    },
    {
      "inputs": [
        {
          "internalType": "contract ISwap",
          "name": "_baseSwap",
          "type": "address"
        },
        {
          "internalType": "contract IMetaSwap",
          "name": "_metaSwap",
          "type": "address"
        },
        {
          "internalType": "contract IERC20",
          "name": "_metaLPToken",
          "type": "address"
        }
      ],
      "name": "initialize",
      "outputs": [],
      "stateMutability": "nonpayable",
      "type": "function"
    },
    {
      "inputs": [],
      "name": "metaLPToken",
      "outputs": [
        {
          "internalType": "contract IERC20",
          "name": "",
          "type": "address"
        }
      ],
      "stateMutability": "view",
      "type": "function"
    },
    {
      "inputs": [],
      "name": "metaSwap",
      "outputs": [
        {
          "internalType": "contract IMetaSwap",
          "name": "",
          "type": "address"
        }
      ],
      "stateMutability": "view",
      "type": "function"
    },
    {
      "inputs": [
        {
          "internalType": "uint256",
          "name": "",
          "type": "uint256"
        }
      ],
      "name": "metaTokens",
      "outputs": [
        {
          "internalType": "contract IERC20",
          "name": "",
          "type": "address"
        }
      ],
      "stateMutability": "view",
      "type": "function"
    },
    {
      "inputs": [
        {
          "internalType": "uint256",
          "name": "amount",
          "type": "uint256"
        },
        {
          "internalType": "uint256[]",
          "name": "minAmounts",
          "type": "uint256[]"
        },
        {
          "internalType": "uint256",
          "name": "deadline",
          "type": "uint256"
        }
      ],
      "name": "removeLiquidity",
      "outputs": [
        {
          "internalType": "uint256[]",
          "name": "",
          "type": "uint256[]"
        }
      ],
      "stateMutability": "nonpayable",
      "type": "function"
    },
    {
      "inputs": [
        {
          "internalType": "uint256[]",
          "name": "amounts",
          "type": "uint256[]"
        },
        {
          "internalType": "uint256",
          "name": "maxBurnAmount",
          "type": "uint256"
        },
        {
          "internalType": "uint256",
          "name": "deadline",
          "type": "uint256"
        }
      ],
      "name": "removeLiquidityImbalance",
      "outputs": [
        {
          "internalType": "uint256",
          "name": "",
          "type": "uint256"
        }
      ],
      "stateMutability": "nonpayable",
      "type": "function"
    },
    {
      "inputs": [
        {
          "internalType": "uint256",
          "name": "tokenAmount",
          "type": "uint256"
        },
        {
          "internalType": "uint8",
          "name": "tokenIndex",
          "type": "uint8"
        },
        {
          "internalType": "uint256",
          "name": "minAmount",
          "type": "uint256"
        },
        {
          "internalType": "uint256",
          "name": "deadline",
          "type": "uint256"
        }
      ],
      "name": "removeLiquidityOneToken",
      "outputs": [
        {
          "internalType": "uint256",
          "name": "",
          "type": "uint256"
        }
      ],
      "stateMutability": "nonpayable",
      "type": "function"
    },
    {
      "inputs": [
        {
          "internalType": "uint8",
          "name": "tokenIndexFrom",
          "type": "uint8"
        },
        {
          "internalType": "uint8",
          "name": "tokenIndexTo",
          "type": "uint8"
        },
        {
          "internalType": "uint256",
          "name": "dx",
          "type": "uint256"
        },
        {
          "internalType": "uint256",
          "name": "minDy",
          "type": "uint256"
        },
        {
          "internalType": "uint256",
          "name": "deadline",
          "type": "uint256"
        }
      ],
      "name": "swap",
      "outputs": [
        {
          "internalType": "uint256",
          "name": "",
          "type": "uint256"
        }
      ],
      "stateMutability": "nonpayable",
      "type": "function"
    },
    {
      "inputs": [
        {
          "internalType": "uint256",
          "name": "",
          "type": "uint256"
        }
      ],
      "name": "tokens",
      "outputs": [
        {
          "internalType": "contract IERC20",
          "name": "",
          "type": "address"
        }
      ],
      "stateMutability": "view",
      "type": "function"
    }
  ],
  "transactionHash": "0xfc90fafd1f61a568dfc7ad56220c20eb00aa949a23324fa0cbd7297854b709a1",
  "args": [],
  "solcInputHash": "de5675f2de4a73f29d0556003e48b431",
  "bytecode": "0x608060405234801561001057600080fd5b50613ac7806100206000396000f3fe608060405234801561001057600080fd5b506004361061011b5760003560e01c80639750a8ee116100b2578063cb2ef5fe11610081578063e4b50cb811610066578063e4b50cb81461048c578063f9273ffb146104a9578063fd0bd0991461052b5761011b565b8063cb2ef5fe1461047c578063d2650472146104845761011b565b80639750a8ee146103d557806398899f40146103dd578063a95b089f14610412578063c0c53b8b146104425761011b565b80634f64b2be116100ee5780634f64b2be146102da5780637c61e561146102f757806384cdd9bc1461032357806391695586146103995761011b565b806331cd52b014610120578063328123a2146101e75780633e3a1560146102205780634d49e87d14610264575b600080fd5b6101976004803603606081101561013657600080fd5b8135919081019060408101602082013564010000000081111561015857600080fd5b82018360208201111561016a57600080fd5b8035906020019184602083028401116401000000008311171561018c57600080fd5b919350915035610548565b60408051602080825283518183015283519192839290830191858101910280838360005b838110156101d35781810151838201526020016101bb565b505050509050019250505060405180910390f35b610204600480360360208110156101fd57600080fd5b5035610ca7565b604080516001600160a01b039092168252519081900360200190f35b6102526004803603608081101561023657600080fd5b5080359060ff6020820135169060408101359060600135610cce565b60408051918252519081900360200190f35b6102526004803603606081101561027a57600080fd5b81019060208101813564010000000081111561029557600080fd5b8201836020820111156102a757600080fd5b803590602001918460208302840111640100000000831117156102c957600080fd5b9193509150803590602001356110c2565b610204600480360360208110156102f057600080fd5b50356116d5565b6101976004803603604081101561030d57600080fd5b506001600160a01b0381351690602001356116e2565b6102526004803603606081101561033957600080fd5b81019060208101813564010000000081111561035457600080fd5b82018360208201111561036657600080fd5b8035906020019184602083028401116401000000008311171561038857600080fd5b919350915080359060200135611a94565b610252600480360360a08110156103af57600080fd5b5060ff813581169160208101359091169060408101359060608101359060800135612386565b610204612512565b610252600480360360608110156103f357600080fd5b5080356001600160a01b0316906020810135906040013560ff16612521565b6102526004803603606081101561042857600080fd5b5060ff813581169160208101359091169060400135612744565b61047a6004803603606081101561045857600080fd5b506001600160a01b0381358116916020810135821691604090910135166127ee565b005b610204612d0a565b610204612d19565b610204600480360360208110156104a257600080fd5b5035612d28565b610252600480360360608110156104bf57600080fd5b6001600160a01b0382351691908101906040810160208201356401000000008111156104ea57600080fd5b8201836020820111156104fc57600080fd5b8035906020019184602083028401116401000000008311171561051e57600080fd5b9193509150351515612da9565b6102046004803603602081101561054157600080fd5b50356130d0565b6060600260015414156105a2576040805162461bcd60e51b815260206004820152601f60248201527f5265656e7472616e637947756172643a207265656e7472616e742063616c6c00604482015290519081900360640190fd5b60026001556035805460408051602080840282018101909252828152606093909290918301828280156105fe57602002820191906000526020600020905b81546001600160a01b031681526001909101906020018083116105e0575b505050505090506060603680548060200260200160405190810160405280929190818152602001828054801561065d57602002820191906000526020600020905b81546001600160a01b0316815260019091019060200180831161063f575b5050835186519495506060940160001901925050508681146106c6576040805162461bcd60e51b815260206004820152600c60248201527f6f7574206f662072616e67650000000000000000000000000000000000000000604482015290519081900360640190fd5b8067ffffffffffffffff811180156106dd57600080fd5b50604051908082528060200260200182016040528015610707578160200160208202803683370190505b5060385490925061072491506001600160a01b031633308b6130dd565b600060606000600185510390506060855167ffffffffffffffff8111801561074b57600080fd5b50604051908082528060200260200182016040528015610775578160200160208202803683370190505b50905060005b828160ff1610156107be578b8b8260ff1681811061079557fe5b90506020020135828260ff16815181106107ab57fe5b602090810291909101015260010161077b565b50603460009054906101000a90046001600160a01b03166001600160a01b03166331cd52b08d838c6040518463ffffffff1660e01b81526004018084815260200180602001838152602001828103825284818151815260200191508051906020019060200280838360005b83811015610841578181015183820152602001610829565b50505050905001945050505050600060405180830381600087803b15801561086857600080fd5b505af115801561087c573d6000803e3d6000fd5b505050506040513d6000823e601f3d9081017fffffffffffffffffffffffffffffffffffffffffffffffffffffffffffffffe016820160405260208110156108c357600080fd5b81019080805160405193929190846401000000008211156108e357600080fd5b9083019060208201858111156108f857600080fd5b825186602082028301116401000000008211171561091557600080fd5b82525081516020918201928201910280838360005b8381101561094257818101518382015260200161092a565b5050505090500160405250505092505060005b818160ff1610156109e457828160ff168151811061096f57fe5b6020026020010151858260ff168151811061098657fe5b6020026020010181815250506109dc33848360ff16815181106109a557fe5b6020026020010151888460ff16815181106109bc57fe5b60200260200101516001600160a01b03166131659092919063ffffffff16565b600101610955565b508181815181106109f157fe5b602002602001015192506060865167ffffffffffffffff81118015610a1557600080fd5b50604051908082528060200260200182016040528015610a3f578160200160208202803683370190505b50905060005b828160ff161015610a8a578b8b8260ff168501818110610a6157fe5b90506020020135828260ff1681518110610a7757fe5b6020908102919091010152600101610a45565b50603360009054906101000a90046001600160a01b03166001600160a01b03166331cd52b085838c6040518463ffffffff1660e01b81526004018084815260200180602001838152602001828103825284818151815260200191508051906020019060200280838360005b83811015610b0d578181015183820152602001610af5565b50505050905001945050505050600060405180830381600087803b158015610b3457600080fd5b505af1158015610b48573d6000803e3d6000fd5b505050506040513d6000823e601f3d9081017fffffffffffffffffffffffffffffffffffffffffffffffffffffffffffffffe01682016040526020811015610b8f57600080fd5b8101908080516040519392919084640100000000821115610baf57600080fd5b908301906020820185811115610bc457600080fd5b8251866020820283011164010000000082111715610be157600080fd5b82525081516020918201928201910280838360005b83811015610c0e578181015183820152602001610bf6565b5050505090500160405250505092505060005b86518160ff161015610c9357828160ff1681518110610c3c57fe5b6020026020010151858260ff16840181518110610c5557fe5b602002602001018181525050610c8b33848360ff1681518110610c7457fe5b6020026020010151898460ff16815181106109bc57fe5b600101610c21565b505060018055509098975050505050505050565b60358181548110610cb457fe5b6000918252602090912001546001600160a01b0316905081565b600060026001541415610d28576040805162461bcd60e51b815260206004820152601f60248201527f5265656e7472616e637947756172643a207265656e7472616e742063616c6c00604482015290519081900360640190fd5b600260015560365460355460385460001990920191610d52906001600160a01b031633308a6130dd565b60008260ff168760ff161015610e3957603454604080517f3e3a1560000000000000000000000000000000000000000000000000000000008152600481018b905260ff8a166024820152604481018990526064810188905290516001600160a01b0390921691633e3a1560916084808201926020929091908290030181600087803b158015610de057600080fd5b505af1158015610df4573d6000803e3d6000fd5b505050506040513d6020811015610e0a57600080fd5b50506036805460ff8916908110610e1d57fe5b6000918252602090912001546001600160a01b03169050611021565b81830160ff168760ff161015610fd457603454604080517f3e3a1560000000000000000000000000000000000000000000000000000000008152600481018b905260ff8616602482015260006044820181905260648201899052915191926001600160a01b031691633e3a15609160848082019260209290919082900301818787803b158015610ec857600080fd5b505af1158015610edc573d6000803e3d6000fd5b505050506040513d6020811015610ef257600080fd5b5051603354604080517f3e3a15600000000000000000000000000000000000000000000000000000000081526004810184905260ff888d03166024820152604481018b9052606481018a905290519293506001600160a01b0390911691633e3a1560916084808201926020929091908290030181600087803b158015610f7757600080fd5b505af1158015610f8b573d6000803e3d6000fd5b505050506040513d6020811015610fa157600080fd5b50506035805460ff868b0316908110610fb657fe5b6000918252602090912001546001600160a01b031691506110219050565b6040805162461bcd60e51b815260206004820152600c60248201527f6f7574206f662072616e67650000000000000000000000000000000000000000604482015290519081900360640190fd5b6000816001600160a01b03166370a08231306040518263ffffffff1660e01b815260040180826001600160a01b0316815260200191505060206040518083038186803b15801561107057600080fd5b505afa158015611084573d6000803e3d6000fd5b505050506040513d602081101561109a57600080fd5b505190506110b26001600160a01b0383163383613165565b6001805598975050505050505050565b60006002600154141561111c576040805162461bcd60e51b815260206004820152601f60248201527f5265656e7472616e637947756172643a207265656e7472616e742063616c6c00604482015290519081900360640190fd5b600260015560358054604080516020808402820181019092528281526060939092909183018282801561117857602002820191906000526020600020905b81546001600160a01b0316815260019091019060200180831161115a575b50505050509050606060368054806020026020016040519081016040528092919081815260200182805480156111d757602002820191906000526020600020905b81546001600160a01b031681526001909101906020018083116111b9575b505050505090506000600182510390508083510188889050146111f957600080fd5b60006060845167ffffffffffffffff8111801561121557600080fd5b5060405190808252806020026020018201604052801561123f578160200160208202803683370190505b5090506000805b86518160ff16101561135e576000878260ff168151811061126357fe5b6020026020010151905060008d8d8460ff16890181811061128057fe5b9050602002013590506000811115611354576112a76001600160a01b0383163330846130dd565b604080517f70a0823100000000000000000000000000000000000000000000000000000000815230600482015290516001600160a01b038416916370a08231916024808301926020929190829003018186803b15801561130657600080fd5b505afa15801561131a573d6000803e3d6000fd5b505050506040513d602081101561133057600080fd5b50518551869060ff861690811061134357fe5b602002602001018181525050600193505b5050600101611246565b50801561144b576033546040517f4d49e87d000000000000000000000000000000000000000000000000000000008152600060248201819052604482018b90526060600483019081528551606484015285516001600160a01b0390941693634d49e87d938793928e929091829160849091019060208088019102808383895b838110156113f55781810151838201526020016113dd565b50505050905001945050505050602060405180830381600087803b15801561141c57600080fd5b505af1158015611430573d6000803e3d6000fd5b505050506040513d602081101561144657600080fd5b505192505b505060365460009060609067ffffffffffffffff8111801561146c57600080fd5b50604051908082528060200260200182016040528015611496578160200160208202803683370190505b50905060005b848160ff1610156115ad576000868260ff16815181106114b857fe5b6020026020010151905060008d8d8460ff168181106114d357fe5b90506020020135905060008111156115a3576114fa6001600160a01b0383163330846130dd565b604080517f70a0823100000000000000000000000000000000000000000000000000000000815230600482015290516001600160a01b038416916370a08231916024808301926020929190829003018186803b15801561155957600080fd5b505afa15801561156d573d6000803e3d6000fd5b505050506040513d602081101561158357600080fd5b50518451859060ff861690811061159657fe5b6020026020010181815250505b505060010161149c565b50828185815181106115bb57fe5b6020908102919091018101919091526034546040517f4d49e87d000000000000000000000000000000000000000000000000000000008152602481018c9052604481018b90526060600482019081528451606483015284516001600160a01b0390931693634d49e87d9386938f938f939092839260840191878101910280838360005b8381101561165657818101518382015260200161163e565b50505050905001945050505050602060405180830381600087803b15801561167d57600080fd5b505af1158015611691573d6000803e3d6000fd5b505050506040513d60208110156116a757600080fd5b50516038549092506116c491506001600160a01b03163383613165565b600180559998505050505050505050565b60378181548110610cb457fe5b603454604080517f7c61e561000000000000000000000000000000000000000000000000000000008152306004820181905260248201859052915191945060609283926001600160a01b0390911691637c61e561916044808301926000929190829003018186803b15801561175657600080fd5b505afa15801561176a573d6000803e3d6000fd5b505050506040513d6000823e601f3d9081017fffffffffffffffffffffffffffffffffffffffffffffffffffffffffffffffe016820160405260208110156117b157600080fd5b81019080805160405193929190846401000000008211156117d157600080fd5b9083019060208201858111156117e657600080fd5b825186602082028301116401000000008211171561180357600080fd5b82525081516020918201928201910280838360005b83811015611830578181015183820152602001611818565b505050509190910160405250508251603354939450600019810193606093506001600160a01b03169150637c61e561908890869060ff871690811061187157fe5b60200260200101516040518363ffffffff1660e01b815260040180836001600160a01b031681526020018281526020019250505060006040518083038186803b1580156118bd57600080fd5b505afa1580156118d1573d6000803e3d6000fd5b505050506040513d6000823e601f3d9081017fffffffffffffffffffffffffffffffffffffffffffffffffffffffffffffffe0168201604052602081101561191857600080fd5b810190808051604051939291908464010000000082111561193857600080fd5b90830190602082018581111561194d57600080fd5b825186602082028301116401000000008211171561196a57600080fd5b82525081516020918201928201910280838360005b8381101561199757818101518382015260200161197f565b505050509050016040525050509050606081518360ff160167ffffffffffffffff811180156119c557600080fd5b506040519080825280602002602001820160405280156119ef578160200160208202803683370190505b50905060005b8360ff168160ff161015611a3c57848160ff1681518110611a1257fe5b6020026020010151828260ff1681518110611a2957fe5b60209081029190910101526001016119f5565b5060005b82518160ff161015611a8757828160ff1681518110611a5b57fe5b60200260200101518282860160ff1681518110611a7457fe5b6020908102919091010152600101611a40565b5093505050505b92915050565b600060026001541415611aee576040805162461bcd60e51b815260206004820152601f60248201527f5265656e7472616e637947756172643a207265656e7472616e742063616c6c00604482015290519081900360640190fd5b6002600155603580546040805160208084028201810190925282815260609390929091830182828015611b4a57602002820191906000526020600020905b81546001600160a01b03168152600190910190602001808311611b2c575b5050505050905060606036805480602002602001604051908101604052809291908181526020018280548015611ba957602002820191906000526020600020905b81546001600160a01b03168152600190910190602001808311611b8b575b505050505090506060815167ffffffffffffffff81118015611bca57600080fd5b50604051908082528060200260200182016040528015611bf4578160200160208202803683370190505b5090506060835167ffffffffffffffff81118015611c1157600080fd5b50604051908082528060200260200182016040528015611c3b578160200160208202803683370190505b508351855191925001600019018814611c9b576040805162461bcd60e51b815260206004820152600c60248201527f6f7574206f662072616e67650000000000000000000000000000000000000000604482015290519081900360640190fd5b611ca361393f565b506040805160c0810182526033546001600160a01b03908116825260345481166020830152603854169181019190915282516000190160ff16606082015260006080820181905260a082018190525b816060015160ff168160ff161015611d3c578a8a8260ff16818110611d1357fe5b90506020020135848260ff1681518110611d2957fe5b6020908102919091010152600101611cf2565b5060005b82518160ff161015611db2578a8a8284606001510160ff16818110611d6157fe5b90506020020135838260ff1681518110611d7757fe5b6020026020010181815250506000838260ff1681518110611d9457fe5b60200260200101511115611daa57600160808301525b600101611d40565b50806080015115611ec357611ea3612710611e9d61271584600001516001600160a01b031663f9273ffb308860006040518463ffffffff1660e01b815260040180846001600160a01b03168152602001806020018315158152602001828103825284818151815260200191508051906020019060200280838360005b83811015611e46578181015183820152602001611e2e565b5050505090500194505050505060206040518083038186803b158015611e6b57600080fd5b505afa158015611e7f573d6000803e3d6000fd5b505050506040513d6020811015611e9557600080fd5b5051906131ea565b90613243565b83826060015160ff1681518110611eb657fe5b6020026020010181815250505b6040810151611edd906001600160a01b031633308b6130dd565b600081602001516001600160a01b03166384cdd9bc858b8b6040518463ffffffff1660e01b81526004018080602001848152602001838152602001828103825285818151815260200191508051906020019060200280838360005b83811015611f50578181015183820152602001611f38565b50505050905001945050505050602060405180830381600087803b158015611f7757600080fd5b505af1158015611f8b573d6000803e3d6000fd5b505050506040513d6020811015611fa157600080fd5b50519050611faf89826132aa565b60a08301526080820151156122835781600001516001600160a01b03166384cdd9bc8486856060015160ff1681518110611fe557fe5b60200260200101518b6040518463ffffffff1660e01b81526004018080602001848152602001838152602001828103825285818151815260200191508051906020019060200280838360005b83811015612049578181015183820152602001612031565b50505050905001945050505050602060405180830381600087803b15801561207057600080fd5b505af1158015612084573d6000803e3d6000fd5b505050506040513d602081101561209a57600080fd5b5050835160609067ffffffffffffffff811180156120b757600080fd5b506040519080825280602002602001820160405280156120e1578160200160208202803683370190505b509050600086846060015160ff16815181106120f957fe5b602002602001015190506000816001600160a01b03166370a08231306040518263ffffffff1660e01b815260040180826001600160a01b0316815260200191505060206040518083038186803b15801561215257600080fd5b505afa158015612166573d6000803e3d6000fd5b505050506040513d602081101561217c57600080fd5b50519050801561227f578083866060015160ff168151811061219a57fe5b60200260200101818152505061227985602001516001600160a01b0316634d49e87d8560008f6040518463ffffffff1660e01b81526004018080602001848152602001838152602001828103825285818151815260200191508051906020019060200280838360005b8381101561221b578181015183820152602001612203565b50505050905001945050505050602060405180830381600087803b15801561224257600080fd5b505af1158015612256573d6000803e3d6000fd5b505050506040513d602081101561226c57600080fd5b505160a087015190613307565b60a08601525b5050505b60005b60ff81168b111561233d576000836060015160ff168260ff1610156122c357868260ff16815181106122b457fe5b602002602001015190506122e3565b878460600151830360ff16815181106122d857fe5b602002602001015190505b60008d8d8460ff168181106122f457fe5b90506020020135111561233457612334338e8e8560ff1681811061231457fe5b90506020020135836001600160a01b03166131659092919063ffffffff16565b50600101612286565b5060a08201511561236e5761236e338360a0015184604001516001600160a01b03166131659092919063ffffffff16565b5060a001516001805590960398975050505050505050565b6000600260015414156123e0576040805162461bcd60e51b815260206004820152601f60248201527f5265656e7472616e637947756172643a207265656e7472616e742063616c6c00604482015290519081900360640190fd5b600260018190555061241b33308660378a60ff16815481106123fe57fe5b6000918252602090912001546001600160a01b03169291906130dd565b603454604080517f78e0fae800000000000000000000000000000000000000000000000000000000815260ff808a1660048301528816602482015260448101879052606481018690526084810185905290516000926001600160a01b0316916378e0fae89160a480830192602092919082900301818787803b1580156124a057600080fd5b505af11580156124b4573d6000803e3d6000fd5b505050506040513d60208110156124ca57600080fd5b505160378054919250612504913391849160ff8b169081106124e857fe5b6000918252602090912001546001600160a01b03169190613165565b600180559695505050505050565b6033546001600160a01b031681565b6036543093506000906000190160ff80821690841610156125e757603454604080517f98899f400000000000000000000000000000000000000000000000000000000081526001600160a01b0388811660048301526024820188905260ff87166044830152915191909216916398899f40916064808301926020929190829003018186803b1580156125b257600080fd5b505afa1580156125c6573d6000803e3d6000fd5b505050506040513d60208110156125dc57600080fd5b5051915061273d9050565b603454604080517f98899f400000000000000000000000000000000000000000000000000000000081526001600160a01b0388811660048301526024820188905260ff85166044830152915160009392909216916398899f4091606480820192602092909190829003018186803b15801561266157600080fd5b505afa158015612675573d6000803e3d6000fd5b505050506040513d602081101561268b57600080fd5b5051603354604080517f98899f400000000000000000000000000000000000000000000000000000000081526001600160a01b038a811660048301526024820185905260ff878a0316604483015291519394509116916398899f4091606480820192602092909190829003018186803b15801561270757600080fd5b505afa15801561271b573d6000803e3d6000fd5b505050506040513d602081101561273157600080fd5b5051925061273d915050565b9392505050565b603454604080517f75d8e3e400000000000000000000000000000000000000000000000000000000815260ff8087166004830152851660248201526044810184905290516000926001600160a01b0316916375d8e3e4916064808301926020929190829003018186803b1580156127ba57600080fd5b505afa1580156127ce573d6000803e3d6000fd5b505050506040513d60208110156127e457600080fd5b5051949350505050565b600054610100900460ff16806128075750612807613361565b80612815575060005460ff16155b6128505760405162461bcd60e51b815260040180806020018281038252602e81526020018061399b602e913960400191505060405180910390fd5b600054610100900460ff1615801561289957600080547fffffffffffffffffffffffffffffffffffffffffffffffffffffffffffffff0061ff0019909116610100171660011790555b6128a1613372565b60005b60208160ff1610156129b757846001600160a01b03166382b86600826040518263ffffffff1660e01b8152600401808260ff16815260200191505060206040518083038186803b1580156128f757600080fd5b505afa92505050801561291c57506040513d602081101561291757600080fd5b505160015b612925576129b7565b603580546001810182556000919091527fcfa4bec1d3298408bb5afcfcd9c430549c5b31f8aa5c5848151c0a55f473c34d0180547fffffffffffffffffffffffff0000000000000000000000000000000000000000166001600160a01b038316908117909155612998908760001961343a565b6129ae6001600160a01b0382168660001961343a565b506001016128a4565b60018160ff16116129f95760405162461bcd60e51b8152600401808060200182810382526024815260200180613a0e6024913960400191505060405180910390fd5b506000805b60208160ff161015612b3757846001600160a01b03166382b86600826040518263ffffffff1660e01b8152600401808260ff16815260200191505060206040518083038186803b158015612a5157600080fd5b505afa925050508015612a7657506040513d6020811015612a7157600080fd5b505160015b612a7f57612b37565b6036805460018181019092557f4a11f94e20a93c79f6ec743a1954ec4fc2c08429ae2122118bf234b2185c81b80180546001600160a01b0384167fffffffffffffffffffffffff000000000000000000000000000000000000000091821681179092556037805493840181556000527f42a7b7dd785cd69714a189dffb3fd7d7174edc9ece837694ce50f7078f7c31ae909201805490921681179091559092508290612b2e908760001961343a565b506001016129fe565b60018160ff1611612b795760405162461bcd60e51b81526004018080602001828103825260248152602001806139ea6024913960400191505060405180910390fd5b506035600081548110612b8857fe5b600091825260209091200154603780546001600160a01b03909216916000198101908110612bb257fe5b600091825260209091200180547fffffffffffffffffffffffff0000000000000000000000000000000000000000166001600160a01b039290921691909117905560015b60355460ff82161015612c6f57603760358260ff1681548110612c1557fe5b6000918252602080832090910154835460018181018655948452919092200180547fffffffffffffffffffffffff0000000000000000000000000000000000000000166001600160a01b0390921691909117905501612bf6565b50612c866001600160a01b0382168660001961343a565b612c9c6001600160a01b0384168560001961343a565b50603380546001600160a01b038087167fffffffffffffffffffffffff0000000000000000000000000000000000000000928316179092556034805486841690831617905560388054928516929091169190911790558015612d04576000805461ff00191690555b50505050565b6034546001600160a01b031681565b6038546001600160a01b031681565b6037546000908210612d81576040805162461bcd60e51b815260206004820152601260248201527f696e646578206f7574206f662072616e67650000000000000000000000000000604482015290519081900360640190fd5b60378281548110612d8e57fe5b6000918252602090912001546001600160a01b031692915050565b60365430945060009060609067ffffffffffffffff81118015612dcb57600080fd5b50604051908082528060200260200182016040528015612df5578160200160208202803683370190505b5060355490915060609067ffffffffffffffff81118015612e1557600080fd5b50604051908082528060200260200182016040528015612e3f578160200160208202803683370190505b5082519091506000190160005b818160ff161015612e8f5787878260ff16818110612e6657fe5b90506020020135848260ff1681518110612e7c57fe5b6020908102919091010152600101612e4c565b5060005b82518160ff161015612ed95787878260ff168401818110612eb057fe5b90506020020135838260ff1681518110612ec657fe5b6020908102919091010152600101612e93565b506033546040517ff9273ffb0000000000000000000000000000000000000000000000000000000081526001600160a01b038a8116600483019081528815156044840152606060248401908152865160648501528651600095939093169363f9273ffb938e9389938d939192909160840190602080870191028083838d5b83811015612f6f578181015183820152602001612f57565b5050505090500194505050505060206040518083038186803b158015612f9457600080fd5b505afa158015612fa8573d6000803e3d6000fd5b505050506040513d6020811015612fbe57600080fd5b505184519091508190859084908110612fd357fe5b6020908102919091018101919091526034546040517ff9273ffb0000000000000000000000000000000000000000000000000000000081526001600160a01b038c8116600483019081528a15156044840152606060248401908152895160648501528951929094169463f9273ffb948f948b948e9493608490920191868101910280838360005b8381101561307257818101518382015260200161305a565b5050505090500194505050505060206040518083038186803b15801561309757600080fd5b505afa1580156130ab573d6000803e3d6000fd5b505050506040513d60208110156130c157600080fd5b50519998505050505050505050565b60368181548110610cb457fe5b604080516001600160a01b0380861660248301528416604482015260648082018490528251808303909101815260849091019091526020810180517bffffffffffffffffffffffffffffffffffffffffffffffffffffffff167f23b872dd00000000000000000000000000000000000000000000000000000000179052612d04908590613590565b604080516001600160a01b038416602482015260448082018490528251808303909101815260649091019091526020810180517bffffffffffffffffffffffffffffffffffffffffffffffffffffffff167fa9059cbb000000000000000000000000000000000000000000000000000000001790526131e5908490613590565b505050565b6000826131f957506000611a8e565b8282028284828161320657fe5b041461273d5760405162461bcd60e51b81526004018080602001828103825260218152602001806139c96021913960400191505060405180910390fd5b6000808211613299576040805162461bcd60e51b815260206004820152601a60248201527f536166654d6174683a206469766973696f6e206279207a65726f000000000000604482015290519081900360640190fd5b8183816132a257fe5b049392505050565b600082821115613301576040805162461bcd60e51b815260206004820152601e60248201527f536166654d6174683a207375627472616374696f6e206f766572666c6f770000604482015290519081900360640190fd5b50900390565b60008282018381101561273d576040805162461bcd60e51b815260206004820152601b60248201527f536166654d6174683a206164646974696f6e206f766572666c6f770000000000604482015290519081900360640190fd5b600061336c30613641565b15905090565b600054610100900460ff168061338b575061338b613361565b80613399575060005460ff16155b6133d45760405162461bcd60e51b815260040180806020018281038252602e81526020018061399b602e913960400191505060405180910390fd5b600054610100900460ff1615801561341d57600080547fffffffffffffffffffffffffffffffffffffffffffffffffffffffffffffff0061ff0019909116610100171660011790555b613425613647565b8015613437576000805461ff00191690555b50565b8015806134d95750604080517fdd62ed3e0000000000000000000000000000000000000000000000000000000081523060048201526001600160a01b03848116602483015291519185169163dd62ed3e91604480820192602092909190829003018186803b1580156134ab57600080fd5b505afa1580156134bf573d6000803e3d6000fd5b505050506040513d60208110156134d557600080fd5b5051155b6135145760405162461bcd60e51b8152600401808060200182810382526036815260200180613a5c6036913960400191505060405180910390fd5b604080516001600160a01b038416602482015260448082018490528251808303909101815260649091019091526020810180517bffffffffffffffffffffffffffffffffffffffffffffffffffffffff167f095ea7b3000000000000000000000000000000000000000000000000000000001790526131e59084905b60606135e5826040518060400160405280602081526020017f5361666545524332303a206c6f772d6c6576656c2063616c6c206661696c6564815250856001600160a01b031661370a9092919063ffffffff16565b8051909150156131e55780806020019051602081101561360457600080fd5b50516131e55760405162461bcd60e51b815260040180806020018281038252602a815260200180613a32602a913960400191505060405180910390fd5b3b151590565b600054610100900460ff16806136605750613660613361565b8061366e575060005460ff16155b6136a95760405162461bcd60e51b815260040180806020018281038252602e81526020018061399b602e913960400191505060405180910390fd5b600054610100900460ff161580156136f257600080547fffffffffffffffffffffffffffffffffffffffffffffffffffffffffffffff0061ff0019909116610100171660011790555b600180558015613437576000805461ff001916905550565b60606137198484600085613721565b949350505050565b6060824710156137625760405162461bcd60e51b81526004018080602001828103825260268152602001806139756026913960400191505060405180910390fd5b61376b85613641565b6137bc576040805162461bcd60e51b815260206004820152601d60248201527f416464726573733a2063616c6c20746f206e6f6e2d636f6e7472616374000000604482015290519081900360640190fd5b60006060866001600160a01b031685876040518082805190602001908083835b6020831061381957805182527fffffffffffffffffffffffffffffffffffffffffffffffffffffffffffffffe090920191602091820191016137dc565b6001836020036101000a03801982511681845116808217855250505050505090500191505060006040518083038185875af1925050503d806000811461387b576040519150601f19603f3d011682016040523d82523d6000602084013e613880565b606091505b509150915061389082828661389b565b979650505050505050565b606083156138aa57508161273d565b8251156138ba5782518084602001fd5b8160405162461bcd60e51b81526004018080602001828103825283818151815260200191508051906020019080838360005b838110156139045781810151838201526020016138ec565b50505050905090810190601f1680156139315780820380516001836020036101000a031916815260200191505b509250505060405180910390fd5b6040805160c081018252600080825260208201819052918101829052606081018290526080810182905260a08101919091529056fe416464726573733a20696e73756666696369656e742062616c616e636520666f722063616c6c496e697469616c697a61626c653a20636f6e747261637420697320616c726561647920696e697469616c697a6564536166654d6174683a206d756c7469706c69636174696f6e206f766572666c6f776d65746153776170206d7573742068617665206174206c65617374203220746f6b656e736261736553776170206d7573742068617665206174206c65617374203220746f6b656e735361666545524332303a204552433230206f7065726174696f6e20646964206e6f7420737563636565645361666545524332303a20617070726f76652066726f6d206e6f6e2d7a65726f20746f206e6f6e2d7a65726f20616c6c6f77616e6365a264697066735822122085e1dc2958e3e7041b44e5d9cfc12c3cc4dd91c92012bca58792c740222d7b8c64736f6c634300060c0033",
  "devdoc": {
    "kind": "dev",
    "methods": {
      "addLiquidity(uint256[],uint256,uint256)": {
        "params": {
          "amounts": "the amounts of each token to add, in their native precision",
          "deadline": "latest timestamp to accept this transaction",
          "minToMint": "the minimum LP tokens adding this amount of liquidity should mint, otherwise revert. Handy for front-running mitigation"
        },
        "returns": {
          "_0": "amount of LP token user minted and received"
        }
      },
      "calculateRemoveLiquidity(address,uint256)": {
        "params": {
          "account": "the address that is withdrawing tokens",
          "amount": "the amount of LP tokens that would be burned on withdrawal"
        },
        "returns": {
          "_0": "array of token balances that the user will receive"
        }
      },
      "calculateRemoveLiquidityOneToken(address,uint256,uint8)": {
        "params": {
          "account": "the address that is withdrawing tokens",
          "tokenAmount": "the amount of LP token to burn",
          "tokenIndex": "index of which token will be withdrawn"
        },
        "returns": {
          "_0": "availableTokenAmount calculated amount of underlying token available to withdraw"
        }
      },
      "calculateSwap(uint8,uint8,uint256)": {
        "params": {
          "dx": "the amount of tokens the user wants to sell. If the token charges a fee on transfers, use the amount that gets transferred after the fee.",
          "tokenIndexFrom": "the token the user wants to sell",
          "tokenIndexTo": "the token the user wants to buy"
        },
        "returns": {
          "_0": "amount of tokens the user will receive"
        }
      },
      "calculateTokenAmount(address,uint256[],bool)": {
        "details": "This shouldn't be used outside frontends for user estimates.",
        "params": {
          "account": "address that is depositing or withdrawing tokens",
          "amounts": "an array of token amounts to deposit or withdrawal, corresponding to pooledTokens. The amount should be in each pooled token's native precision. If a token charges a fee on transfers, use the amount that gets transferred after the fee.",
          "deposit": "whether this is a deposit or a withdrawal"
        },
        "returns": {
          "_0": "token amount the user will receive"
        }
      },
      "getToken(uint256)": {
        "params": {
          "index": "the index of the token"
        },
        "returns": {
          "_0": "address of the token at given index"
        }
      },
      "initialize(address,address,address)": {
        "params": {
          "_baseSwap": "the address of the base Swap contract",
          "_metaLPToken": "the address of the MetaSwap LP token contract",
          "_metaSwap": "the address of the MetaSwap contract"
        }
      },
      "removeLiquidity(uint256,uint256[],uint256)": {
        "details": "Liquidity can always be removed, even when the pool is paused.",
        "params": {
          "amount": "the amount of LP tokens to burn",
          "deadline": "latest timestamp to accept this transaction",
          "minAmounts": "the minimum amounts of each token in the pool        acceptable for this burn. Useful as a front-running mitigation"
        },
        "returns": {
          "_0": "amounts of tokens user received"
        }
      },
      "removeLiquidityImbalance(uint256[],uint256,uint256)": {
        "params": {
          "amounts": "how much of each token to withdraw",
          "deadline": "latest timestamp to accept this transaction",
          "maxBurnAmount": "the max LP token provider is willing to pay to remove liquidity. Useful as a front-running mitigation."
        },
        "returns": {
          "_0": "amount of LP tokens burned"
        }
      },
      "removeLiquidityOneToken(uint256,uint8,uint256,uint256)": {
        "params": {
          "deadline": "latest timestamp to accept this transaction",
          "minAmount": "the minimum amount to withdraw, otherwise revert",
          "tokenAmount": "the amount of the token you want to receive",
          "tokenIndex": "the index of the token you want to receive"
        },
        "returns": {
          "_0": "amount of chosen token user received"
        }
      },
      "swap(uint8,uint8,uint256,uint256,uint256)": {
        "params": {
          "deadline": "latest timestamp to accept this transaction",
          "dx": "the amount of tokens the user wants to swap from",
          "minDy": "the min amount the user would like to receive, or revert.",
          "tokenIndexFrom": "the token the user wants to swap from",
          "tokenIndexTo": "the token the user wants to swap to"
        }
      }
    },
    "title": "MetaSwapDeposit",
    "version": 1
  },
  "userdoc": {
    "kind": "user",
    "methods": {
      "addLiquidity(uint256[],uint256,uint256)": {
        "notice": "Add liquidity to the pool with the given amounts of tokens"
      },
      "calculateRemoveLiquidity(address,uint256)": {
        "notice": "A simple method to calculate amount of each underlying tokens that is returned upon burning given amount of LP tokens"
      },
      "calculateRemoveLiquidityOneToken(address,uint256,uint8)": {
        "notice": "Calculate the amount of underlying token available to withdraw when withdrawing via only single token"
      },
      "calculateSwap(uint8,uint8,uint256)": {
        "notice": "Calculate amount of tokens you receive on swap"
      },
      "calculateTokenAmount(address,uint256[],bool)": {
        "notice": "A simple method to calculate prices from deposits or withdrawals, excluding fees but including slippage. This is helpful as an input into the various \"min\" parameters on calls to fight front-running. When withdrawing from the base pool in imbalanced fashion, the recommended slippage setting is 0.2% or higher."
      },
      "getToken(uint256)": {
        "notice": "Returns the address of the pooled token at given index. Reverts if tokenIndex is out of range. This is a flattened representation of the pooled tokens."
      },
      "initialize(address,address,address)": {
        "notice": "Sets the address for the base Swap contract, MetaSwap contract, and the MetaSwap LP token contract."
      },
      "removeLiquidity(uint256,uint256[],uint256)": {
        "notice": "Burn LP tokens to remove liquidity from the pool. Withdraw fee that decays linearly over period of 4 weeks since last deposit will apply."
      },
      "removeLiquidityImbalance(uint256[],uint256,uint256)": {
        "notice": "Remove liquidity from the pool, weighted differently than the pool's current balances. Withdraw fee that decays linearly over period of 4 weeks since last deposit will apply."
      },
      "removeLiquidityOneToken(uint256,uint8,uint256,uint256)": {
        "notice": "Remove liquidity from the pool all in one token. Withdraw fee that decays linearly over period of 4 weeks since last deposit will apply."
      },
      "swap(uint8,uint8,uint256,uint256,uint256)": {
        "notice": "Swap two underlying tokens using the meta pool and the base pool"
      }
    },
    "notice": "This contract flattens the LP token in a MetaSwap pool for easier user access. MetaSwap must be deployed before this contract can be initialized successfully. For example, suppose there exists a base Swap pool consisting of [DAI, USDC, USDT]. Then a MetaSwap pool can be created with [sUSD, BaseSwapLPToken] to allow trades between either the LP token or the underlying tokens and sUSD. MetaSwapDeposit flattens the LP token and remaps them to a single array, allowing users to ignore the dependency on BaseSwapLPToken. Using the above example, MetaSwapDeposit can act as a Swap containing [sUSD, DAI, USDC, USDT] tokens.",
    "version": 1
  },
  "storageLayout": {
    "storage": [
      {
        "astId": 492,
        "contract": "contracts/meta/MetaSwapDeposit.sol:MetaSwapDeposit",
        "label": "_initialized",
        "offset": 0,
        "slot": "0",
        "type": "t_bool"
      },
      {
        "astId": 495,
        "contract": "contracts/meta/MetaSwapDeposit.sol:MetaSwapDeposit",
        "label": "_initializing",
        "offset": 1,
        "slot": "0",
        "type": "t_bool"
      },
      {
        "astId": 1659,
        "contract": "contracts/meta/MetaSwapDeposit.sol:MetaSwapDeposit",
        "label": "_status",
        "offset": 0,
        "slot": "1",
        "type": "t_uint256"
      },
      {
        "astId": 1702,
        "contract": "contracts/meta/MetaSwapDeposit.sol:MetaSwapDeposit",
        "label": "__gap",
        "offset": 0,
        "slot": "2",
        "type": "t_array(t_uint256)49_storage"
      },
      {
        "astId": 10186,
        "contract": "contracts/meta/MetaSwapDeposit.sol:MetaSwapDeposit",
        "label": "baseSwap",
        "offset": 0,
        "slot": "51",
        "type": "t_contract(ISwap)9500"
      },
      {
        "astId": 10188,
        "contract": "contracts/meta/MetaSwapDeposit.sol:MetaSwapDeposit",
        "label": "metaSwap",
        "offset": 0,
        "slot": "52",
        "type": "t_contract(IMetaSwap)9311"
      },
      {
        "astId": 10191,
        "contract": "contracts/meta/MetaSwapDeposit.sol:MetaSwapDeposit",
        "label": "baseTokens",
        "offset": 0,
        "slot": "53",
        "type": "t_array(t_contract(IERC20)2829)dyn_storage"
      },
      {
        "astId": 10194,
        "contract": "contracts/meta/MetaSwapDeposit.sol:MetaSwapDeposit",
        "label": "metaTokens",
        "offset": 0,
        "slot": "54",
        "type": "t_array(t_contract(IERC20)2829)dyn_storage"
      },
      {
        "astId": 10197,
        "contract": "contracts/meta/MetaSwapDeposit.sol:MetaSwapDeposit",
        "label": "tokens",
        "offset": 0,
        "slot": "55",
        "type": "t_array(t_contract(IERC20)2829)dyn_storage"
      },
      {
        "astId": 10199,
        "contract": "contracts/meta/MetaSwapDeposit.sol:MetaSwapDeposit",
        "label": "metaLPToken",
        "offset": 0,
        "slot": "56",
        "type": "t_contract(IERC20)2829"
      }
    ],
    "types": {
      "t_array(t_contract(IERC20)2829)dyn_storage": {
        "base": "t_contract(IERC20)2829",
        "encoding": "dynamic_array",
        "label": "contract IERC20[]",
        "numberOfBytes": "32"
      },
      "t_array(t_uint256)49_storage": {
        "base": "t_uint256",
        "encoding": "inplace",
        "label": "uint256[49]",
        "numberOfBytes": "1568"
      },
      "t_bool": {
        "encoding": "inplace",
        "label": "bool",
        "numberOfBytes": "1"
      },
      "t_contract(IERC20)2829": {
        "encoding": "inplace",
        "label": "contract IERC20",
        "numberOfBytes": "20"
      },
      "t_contract(IMetaSwap)9311": {
        "encoding": "inplace",
        "label": "contract IMetaSwap",
        "numberOfBytes": "20"
      },
      "t_contract(ISwap)9500": {
        "encoding": "inplace",
        "label": "contract ISwap",
        "numberOfBytes": "20"
      },
      "t_uint256": {
        "encoding": "inplace",
        "label": "uint256",
        "numberOfBytes": "32"
      }
    }
  }
}